S0100000435F4620746573742E737265634C
S11300000C9434000C9451000C9451000C94510045
S11300100C9451000C9451000C9451000C94510018
S11300200C9451000C9451000C9451000C94510008
S11300300C9451000C9451000C9451000C945100F8
S11300400C9451000C9451000C9451000C945100E8
S11300500C9451000C9451000C9451000C945100D8
S11300600C9451000C94510011241FBECFEFD8E022
S1130070DEBFCDBF11E0A0E0B1E0E2E2F5E002C0F6
S113008005900D92A231B107D9F721E0A2E1B1E0C8
S113009001C01D92A531B207E1F70E9469010C94D9
S11300A08F020C9400002A9827E030E090E0AC0125
S11300B0022E02C0559547950A94E2F740FF02C00C
S11300C0289A01C028982D9A2D982150310978F743
S11300D087E090E070E09B01082E02C035952795DB
S11300E00A94E2F720FF02C0289A01C028982D9AAA
S11300F02D98019780F72A9A089560E089E00E947C
S113010053006FE08AE00E94530067E08BE00E9496
S1130110530061E08CE00E94530060E08FE00E9495
S1130120530008951F93CF93DF93C82F1DEC819F35
S1130130D12D1124D695D695D6959D2F990F892F1B
S1130140880F880F890FEC2FE81BF0E0E95FFE4F62
S1130150608182E00E945300D19F112D11241695D5
S113016016951695110F812F880F880F180FD11B24
S1130170ED2FF0E0E95FFE4F608183E00E945300C1
S1130180E9E2CE9FE12D1124E295EF70F0E0E95F02
S1130190FE4F608184E00E945300DF91CF911F9154
S11301A00895811105C06EE481E00E945300089512
S11301B067E481E00E945300089517BC18BC1092B4
S11301C0B4001092B3002B982998803150F42FEF8B
S11301D0829FC00111246FE070E00E94670268BD35
S11301E008958A3180F4282F30E0205131094FEFEF
S11301F0429FC001439F900D11246AE070E00E9469
S1130200670267BD0895843288F4282F30E02A51AC
S113021031094FEF429FC001439F900D11246AE0C2
S113022070E00E9467026093B4000895893288F4F4
S1130230282F30E0245231094FEF429FC001439FE1
S1130240900D112465E070E00E9467026093B30092
S113025008952B9A0895CF93C1E060E08C2F0E94FB
S11302605300CF5FC930C9F7CF91089517BC18BCAC
S11302701092B4001092B3002B98089584B5836053
S113028084BD84B5806A84BD85B5816085BDE0EB9D
S1130290F0E08081836080838081806A8083E1EBE9
S11302A0F0E080818160808308958AB188768AB97C
S11302B08BB187698BB98AB188668AB984B18A603F
S11302C084B984B1856284B90E947D000E943E0194
S11302D00895CF93DF93CDB7DEB72F970FB6F89479
S11302E0DEBF0FBECDBF0E94550185E0E2E0F1E024
S11302F0DE01119601900D928A95E1F7FE013B967D
S113030085E0DF011D928A95E9F7992493946F01A2
S1130310892C0F2EF8EC7F2EF02D0F2EF5E0AF2E4A
S1130320B12CF02D89B1892581708E8389B1869590
S1130330817089258F8389B182FB882780F989257B
S1130340888789B18095881F8827881F898789B104
S11303508295817089258A878E010A5F1F4FDE018D
S11303601B96FE0131967F01CF01A801FA0121916C
S1130370AF01222331F0FC012081211102C09C92A3
S113038001C01C92119601964C155D0579F78B8579
S1130390882389F0809114018F5F809314018091E8
S11303A01401883210F08092130180911401883C6A
S11303B010F0109214018C858823A9F08091140107
S11303C0882331F08091140181508093140104C07A
S11303D0709214018092130180911401883218F4F0
S11303E01092130129988D85882339F010921401F5
S11303F0109213011092120129988E85882339F0E6
S113040090910101892D911180E0809301018F85E4
S1130410882381F090910001892D911180E08093CF
S1130420000180910001882319F00E94360102C066
S11304300E942B0180910001882319F18091010110
S1130440813041F4809114010E94920080E00E9466
S1130450D1001BC08091140190E09C01220F331F36
S1130460220F331F220F331F820F931FB5010E94E7
S1130470670280E2860F0E949200892D0E94D100BB
S113048004C0809114010E94DD008091130188232F
S113049071F090911201892D911180E080931201E5
S11304A080911201882311F0299A01C02998D8015A
S11304B08D918D01F70181937F01AC15BD05B9F7CD
S11304C08FE19EE40197F1F700C000002BCF97FB6A
S11304D0072E16F4009407D077FD09D00E947B0202
S11304E007FC05D03EF4909581959F4F0895709533
S11304F061957F4F0895AA1BBB1B51E107C0AA1F3A
S1130500BB1FA617B70710F0A61BB70B881F991FB0
S11305105A95A9F780959095BC01CD010895F8945A
S1050520FFCF07
S1130522010101010101017E306D79335B5F707F4E
S10505327B0048
S9030000FC
